{
  "contracts/DB.sol": {
    "SCagentDB": {
      "abi": [
        {
          "inputs": [
            {
              "internalType": "uint256",
              "name": "_health",
              "type": "uint256"
            },
            {
              "internalType": "uint256",
              "name": "_attackPower",
              "type": "uint256"
            },
            {
              "internalType": "enum SCagentDB.CharacterType",
              "name": "_type",
              "type": "uint8"
            }
          ],
          "name": "createCharacter",
          "outputs": [],
          "stateMutability": "nonpayable",
          "type": "function"
        },
        {
          "inputs": [
            {
              "internalType": "uint256",
              "name": "_index",
              "type": "uint256"
            }
          ],
          "name": "getCharacter",
          "outputs": [
            {
              "internalType": "uint256",
              "name": "",
              "type": "uint256"
            },
            {
              "internalType": "uint256",
              "name": "",
              "type": "uint256"
            },
            {
              "internalType": "enum SCagentDB.CharacterType",
              "name": "",
              "type": "uint8"
            }
          ],
          "stateMutability": "view",
          "type": "function"
        },
        {
          "inputs": [
            {
              "internalType": "uint256",
              "name": "_index",
              "type": "uint256"
            },
            {
              "internalType": "uint256",
              "name": "_health",
              "type": "uint256"
            },
            {
              "internalType": "uint256",
              "name": "_attackPower",
              "type": "uint256"
            }
          ],
          "name": "updateCharacter",
          "outputs": [],
          "stateMutability": "nonpayable",
          "type": "function"
        }
      ],
      "evm": {
        "bytecode": {
          "linkReferences": {},
          "object": "608060405234801561001057600080fd5b506104a2806100206000396000f3fe608060405234801561001057600080fd5b50600436106100415760003560e01c806306d9b59514610046578063c5973fe114610062578063dabb05311461007e575b600080fd5b610060600480360381019061005b9190610288565b6100b0565b005b61007c60048036038101906100779190610300565b610109565b005b61009860048036038101906100939190610353565b6101ac565b6040516100a793929190610406565b60405180910390f35b81600084815481106100c5576100c461043d565b5b90600052602060002090600302016000018190555080600084815481106100ef576100ee61043d565b5b906000526020600020906003020160010181905550505050565b600060405180606001604052808581526020018481526020018360028111156101355761013461038f565b5b8152509080600181540180825580915050600190039060005260206000209060030201600090919091909150600082015181600001556020820151816001015560408201518160020160006101000a81548160ff021916908360028111156101a05761019f61038f565b5b02179055505050505050565b600080600080600085815481106101c6576101c561043d565b5b906000526020600020906003020160405180606001604052908160008201548152602001600182015481526020016002820160009054906101000a900460ff1660028111156102185761021761038f565b5b600281111561022a5761022961038f565b5b815250509050806000015181602001518260400151935093509350509193909250565b600080fd5b6000819050919050565b61026581610252565b811461027057600080fd5b50565b6000813590506102828161025c565b92915050565b6000806000606084860312156102a1576102a061024d565b5b60006102af86828701610273565b93505060206102c086828701610273565b92505060406102d186828701610273565b9150509250925092565b600381106102e857600080fd5b50565b6000813590506102fa816102db565b92915050565b6000806000606084860312156103195761031861024d565b5b600061032786828701610273565b935050602061033886828701610273565b9250506040610349868287016102eb565b9150509250925092565b6000602082840312156103695761036861024d565b5b600061037784828501610273565b91505092915050565b61038981610252565b82525050565b7f4e487b7100000000000000000000000000000000000000000000000000000000600052602160045260246000fd5b600381106103cf576103ce61038f565b5b50565b60008190506103e0826103be565b919050565b60006103f0826103d2565b9050919050565b610400816103e5565b82525050565b600060608201905061041b6000830186610380565b6104286020830185610380565b61043560408301846103f7565b949350505050565b7f4e487b7100000000000000000000000000000000000000000000000000000000600052603260045260246000fdfea2646970667358221220ffbd25aa99882ce6a2d2839221b4eba8f8dc33c4a2b3931e6f3dff897fdb2bbf64736f6c63430008180033",
          "opcodes": "PUSH1 0x80 PUSH1 0x40 MSTORE CALLVALUE DUP1 ISZERO PUSH2 0x10 JUMPI PUSH1 0x0 DUP1 REVERT JUMPDEST POP PUSH2 0x4A2 DUP1 PUSH2 0x20 PUSH1 0x0 CODECOPY PUSH1 0x0 RETURN INVALID PUSH1 0x80 PUSH1 0x40 MSTORE CALLVALUE DUP1 ISZERO PUSH2 0x10 JUMPI PUSH1 0x0 DUP1 REVERT JUMPDEST POP PUSH1 0x4 CALLDATASIZE LT PUSH2 0x41 JUMPI PUSH1 0x0 CALLDATALOAD PUSH1 0xE0 SHR DUP1 PUSH4 0x6D9B595 EQ PUSH2 0x46 JUMPI DUP1 PUSH4 0xC5973FE1 EQ PUSH2 0x62 JUMPI DUP1 PUSH4 0xDABB0531 EQ PUSH2 0x7E JUMPI JUMPDEST PUSH1 0x0 DUP1 REVERT JUMPDEST PUSH2 0x60 PUSH1 0x4 DUP1 CALLDATASIZE SUB DUP2 ADD SWAP1 PUSH2 0x5B SWAP2 SWAP1 PUSH2 0x288 JUMP JUMPDEST PUSH2 0xB0 JUMP JUMPDEST STOP JUMPDEST PUSH2 0x7C PUSH1 0x4 DUP1 CALLDATASIZE SUB DUP2 ADD SWAP1 PUSH2 0x77 SWAP2 SWAP1 PUSH2 0x300 JUMP JUMPDEST PUSH2 0x109 JUMP JUMPDEST STOP JUMPDEST PUSH2 0x98 PUSH1 0x4 DUP1 CALLDATASIZE SUB DUP2 ADD SWAP1 PUSH2 0x93 SWAP2 SWAP1 PUSH2 0x353 JUMP JUMPDEST PUSH2 0x1AC JUMP JUMPDEST PUSH1 0x40 MLOAD PUSH2 0xA7 SWAP4 SWAP3 SWAP2 SWAP1 PUSH2 0x406 JUMP JUMPDEST PUSH1 0x40 MLOAD DUP1 SWAP2 SUB SWAP1 RETURN JUMPDEST DUP2 PUSH1 0x0 DUP5 DUP2 SLOAD DUP2 LT PUSH2 0xC5 JUMPI PUSH2 0xC4 PUSH2 0x43D JUMP JUMPDEST JUMPDEST SWAP1 PUSH1 0x0 MSTORE PUSH1 0x20 PUSH1 0x0 KECCAK256 SWAP1 PUSH1 0x3 MUL ADD PUSH1 0x0 ADD DUP2 SWAP1 SSTORE POP DUP1 PUSH1 0x0 DUP5 DUP2 SLOAD DUP2 LT PUSH2 0xEF JUMPI PUSH2 0xEE PUSH2 0x43D JUMP JUMPDEST JUMPDEST SWAP1 PUSH1 0x0 MSTORE PUSH1 0x20 PUSH1 0x0 KECCAK256 SWAP1 PUSH1 0x3 MUL ADD PUSH1 0x1 ADD DUP2 SWAP1 SSTORE POP POP POP POP JUMP JUMPDEST PUSH1 0x0 PUSH1 0x40 MLOAD DUP1 PUSH1 0x60 ADD PUSH1 0x40 MSTORE DUP1 DUP6 DUP2 MSTORE PUSH1 0x20 ADD DUP5 DUP2 MSTORE PUSH1 0x20 ADD DUP4 PUSH1 0x2 DUP2 GT ISZERO PUSH2 0x135 JUMPI PUSH2 0x134 PUSH2 0x38F JUMP JUMPDEST JUMPDEST DUP2 MSTORE POP SWAP1 DUP1 PUSH1 0x1 DUP2 SLOAD ADD DUP1 DUP3 SSTORE DUP1 SWAP2 POP POP PUSH1 0x1 SWAP1 SUB SWAP1 PUSH1 0x0 MSTORE PUSH1 0x20 PUSH1 0x0 KECCAK256 SWAP1 PUSH1 0x3 MUL ADD PUSH1 0x0 SWAP1 SWAP2 SWAP1 SWAP2 SWAP1 SWAP2 POP PUSH1 0x0 DUP3 ADD MLOAD DUP2 PUSH1 0x0 ADD SSTORE PUSH1 0x20 DUP3 ADD MLOAD DUP2 PUSH1 0x1 ADD SSTORE PUSH1 0x40 DUP3 ADD MLOAD DUP2 PUSH1 0x2 ADD PUSH1 0x0 PUSH2 0x100 EXP DUP2 SLOAD DUP2 PUSH1 0xFF MUL NOT AND SWAP1 DUP4 PUSH1 0x2 DUP2 GT ISZERO PUSH2 0x1A0 JUMPI PUSH2 0x19F PUSH2 0x38F JUMP JUMPDEST JUMPDEST MUL OR SWAP1 SSTORE POP POP POP POP POP POP JUMP JUMPDEST PUSH1 0x0 DUP1 PUSH1 0x0 DUP1 PUSH1 0x0 DUP6 DUP2 SLOAD DUP2 LT PUSH2 0x1C6 JUMPI PUSH2 0x1C5 PUSH2 0x43D JUMP JUMPDEST JUMPDEST SWAP1 PUSH1 0x0 MSTORE PUSH1 0x20 PUSH1 0x0 KECCAK256 SWAP1 PUSH1 0x3 MUL ADD PUSH1 0x40 MLOAD DUP1 PUSH1 0x60 ADD PUSH1 0x40 MSTORE SWAP1 DUP2 PUSH1 0x0 DUP3 ADD SLOAD DUP2 MSTORE PUSH1 0x20 ADD PUSH1 0x1 DUP3 ADD SLOAD DUP2 MSTORE PUSH1 0x20 ADD PUSH1 0x2 DUP3 ADD PUSH1 0x0 SWAP1 SLOAD SWAP1 PUSH2 0x100 EXP SWAP1 DIV PUSH1 0xFF AND PUSH1 0x2 DUP2 GT ISZERO PUSH2 0x218 JUMPI PUSH2 0x217 PUSH2 0x38F JUMP JUMPDEST JUMPDEST PUSH1 0x2 DUP2 GT ISZERO PUSH2 0x22A JUMPI PUSH2 0x229 PUSH2 0x38F JUMP JUMPDEST JUMPDEST DUP2 MSTORE POP POP SWAP1 POP DUP1 PUSH1 0x0 ADD MLOAD DUP2 PUSH1 0x20 ADD MLOAD DUP3 PUSH1 0x40 ADD MLOAD SWAP4 POP SWAP4 POP SWAP4 POP POP SWAP2 SWAP4 SWAP1 SWAP3 POP JUMP JUMPDEST PUSH1 0x0 DUP1 REVERT JUMPDEST PUSH1 0x0 DUP2 SWAP1 POP SWAP2 SWAP1 POP JUMP JUMPDEST PUSH2 0x265 DUP2 PUSH2 0x252 JUMP JUMPDEST DUP2 EQ PUSH2 0x270 JUMPI PUSH1 0x0 DUP1 REVERT JUMPDEST POP JUMP JUMPDEST PUSH1 0x0 DUP2 CALLDATALOAD SWAP1 POP PUSH2 0x282 DUP2 PUSH2 0x25C JUMP JUMPDEST SWAP3 SWAP2 POP POP JUMP JUMPDEST PUSH1 0x0 DUP1 PUSH1 0x0 PUSH1 0x60 DUP5 DUP7 SUB SLT ISZERO PUSH2 0x2A1 JUMPI PUSH2 0x2A0 PUSH2 0x24D JUMP JUMPDEST JUMPDEST PUSH1 0x0 PUSH2 0x2AF DUP7 DUP3 DUP8 ADD PUSH2 0x273 JUMP JUMPDEST SWAP4 POP POP PUSH1 0x20 PUSH2 0x2C0 DUP7 DUP3 DUP8 ADD PUSH2 0x273 JUMP JUMPDEST SWAP3 POP POP PUSH1 0x40 PUSH2 0x2D1 DUP7 DUP3 DUP8 ADD PUSH2 0x273 JUMP JUMPDEST SWAP2 POP POP SWAP3 POP SWAP3 POP SWAP3 JUMP JUMPDEST PUSH1 0x3 DUP2 LT PUSH2 0x2E8 JUMPI PUSH1 0x0 DUP1 REVERT JUMPDEST POP JUMP JUMPDEST PUSH1 0x0 DUP2 CALLDATALOAD SWAP1 POP PUSH2 0x2FA DUP2 PUSH2 0x2DB JUMP JUMPDEST SWAP3 SWAP2 POP POP JUMP JUMPDEST PUSH1 0x0 DUP1 PUSH1 0x0 PUSH1 0x60 DUP5 DUP7 SUB SLT ISZERO PUSH2 0x319 JUMPI PUSH2 0x318 PUSH2 0x24D JUMP JUMPDEST JUMPDEST PUSH1 0x0 PUSH2 0x327 DUP7 DUP3 DUP8 ADD PUSH2 0x273 JUMP JUMPDEST SWAP4 POP POP PUSH1 0x20 PUSH2 0x338 DUP7 DUP3 DUP8 ADD PUSH2 0x273 JUMP JUMPDEST SWAP3 POP POP PUSH1 0x40 PUSH2 0x349 DUP7 DUP3 DUP8 ADD PUSH2 0x2EB JUMP JUMPDEST SWAP2 POP POP SWAP3 POP SWAP3 POP SWAP3 JUMP JUMPDEST PUSH1 0x0 PUSH1 0x20 DUP3 DUP5 SUB SLT ISZERO PUSH2 0x369 JUMPI PUSH2 0x368 PUSH2 0x24D JUMP JUMPDEST JUMPDEST PUSH1 0x0 PUSH2 0x377 DUP5 DUP3 DUP6 ADD PUSH2 0x273 JUMP JUMPDEST SWAP2 POP POP SWAP3 SWAP2 POP POP JUMP JUMPDEST PUSH2 0x389 DUP2 PUSH2 0x252 JUMP JUMPDEST DUP3 MSTORE POP POP JUMP JUMPDEST PUSH32 0x4E487B7100000000000000000000000000000000000000000000000000000000 PUSH1 0x0 MSTORE PUSH1 0x21 PUSH1 0x4 MSTORE PUSH1 0x24 PUSH1 0x0 REVERT JUMPDEST PUSH1 0x3 DUP2 LT PUSH2 0x3CF JUMPI PUSH2 0x3CE PUSH2 0x38F JUMP JUMPDEST JUMPDEST POP JUMP JUMPDEST PUSH1 0x0 DUP2 SWAP1 POP PUSH2 0x3E0 DUP3 PUSH2 0x3BE JUMP JUMPDEST SWAP2 SWAP1 POP JUMP JUMPDEST PUSH1 0x0 PUSH2 0x3F0 DUP3 PUSH2 0x3D2 JUMP JUMPDEST SWAP1 POP SWAP2 SWAP1 POP JUMP JUMPDEST PUSH2 0x400 DUP2 PUSH2 0x3E5 JUMP JUMPDEST DUP3 MSTORE POP POP JUMP JUMPDEST PUSH1 0x0 PUSH1 0x60 DUP3 ADD SWAP1 POP PUSH2 0x41B PUSH1 0x0 DUP4 ADD DUP7 PUSH2 0x380 JUMP JUMPDEST PUSH2 0x428 PUSH1 0x20 DUP4 ADD DUP6 PUSH2 0x380 JUMP JUMPDEST PUSH2 0x435 PUSH1 0x40 DUP4 ADD DUP5 PUSH2 0x3F7 JUMP JUMPDEST SWAP5 SWAP4 POP POP POP POP JUMP JUMPDEST PUSH32 0x4E487B7100000000000000000000000000000000000000000000000000000000 PUSH1 0x0 MSTORE PUSH1 0x32 PUSH1 0x4 MSTORE PUSH1 0x24 PUSH1 0x0 REVERT INVALID LOG2 PUSH5 0x6970667358 0x22 SLT KECCAK256 SELFDESTRUCT 0xBD 0x25 0xAA SWAP10 DUP9 0x2C 0xE6 LOG2 0xD2 DUP4 SWAP3 0x21 0xB4 0xEB 0xA8 0xF8 0xDC CALLER 0xC4 LOG2 0xB3 SWAP4 0x1E PUSH16 0x3DFF897FDB2BBF64736F6C6343000818 STOP CALLER "
        },
        "methodIdentifiers": {
          "createCharacter(uint256,uint256,uint8)": "c5973fe1",
          "getCharacter(uint256)": "dabb0531",
          "updateCharacter(uint256,uint256,uint256)": "06d9b595"
        }
      }
    }
  }
}